{
  "_format": "hh-sol-artifact-1",
  "contractName": "glimpse",
  "sourceName": "contracts/glimpse.sol",
  "abi": [
    {
      "inputs": [
        {
          "internalType": "bytes32[]",
          "name": "proof",
          "type": "bytes32[]"
        },
        {
          "internalType": "bytes32",
          "name": "glimpseEvent",
          "type": "bytes32"
        },
        {
          "internalType": "uint256",
          "name": "index",
          "type": "uint256"
        },
        {
          "internalType": "bytes32",
          "name": "root",
          "type": "bytes32"
        }
      ],
      "name": "computeMerkleRoot",
      "outputs": [
        {
          "internalType": "bool",
          "name": "",
          "type": "bool"
        }
      ],
      "stateMutability": "view",
      "type": "function"
    },
    {
      "inputs": [
        {
          "internalType": "bytes[]",
          "name": "blockHeaders",
          "type": "bytes[]"
        },
        {
          "internalType": "bytes32[]",
          "name": "proof",
          "type": "bytes32[]"
        },
        {
          "internalType": "bytes32",
          "name": "glimpseEvent",
          "type": "bytes32"
        },
        {
          "internalType": "uint256",
          "name": "index",
          "type": "uint256"
        },
        {
          "internalType": "bytes",
          "name": "difficultyBits",
          "type": "bytes"
        }
      ],
      "name": "verifyGlimpseProof",
      "outputs": [],
      "stateMutability": "nonpayable",
      "type": "function"
    }
  ],
  "bytecode": "0x608060405234801561001057600080fd5b506112fb806100206000396000f3fe608060405234801561001057600080fd5b50600436106100365760003560e01c8063bc53087b1461003b578063e40e36e41461006b575b600080fd5b61005560048036038101906100509190610ae6565b610087565b604051610062919061102e565b60405180910390f35b61008560048036038101906100809190610b61565b610164565b005b600060148551106100cd576040517f08c379a00000000000000000000000000000000000000000000000000000000081526004016100c490611109565b60405180910390fd5b60006100d885610392565b905060005b865181101561014a5760008782815181106100f457fe5b6020026020010151905060006002878161010a57fe5b0614156101225761011b8382610469565b925061012f565b61012c8184610469565b92505b6002868161013957fe5b0495505080806001019150506100dd565b5061015481610392565b9050828114915050949350505050565b600061016f82610551565b9050600b8651106101b5576040517f08c379a00000000000000000000000000000000000000000000000000000000081526004016101ac906110e9565b60405180910390fd5b60005b86518110156103895760508782815181106101cf57fe5b60200260200101515114610218576040517f08c379a000000000000000000000000000000000000000000000000000000000815260040161020f90611049565b60405180910390fd5b8161024561024061023b8a858151811061022e57fe5b6020026020010151610590565b6105aa565b6105d3565b10610285576040517f08c379a000000000000000000000000000000000000000000000000000000000815260040161027c90611069565b60405180910390fd5b600081141561030057600115156102b98787876102b48c87815181106102a757fe5b6020026020010151610628565b610087565b1515146102fb576040517f08c379a00000000000000000000000000000000000000000000000000000000081526004016102f290611089565b60405180910390fd5b61037c565b61031f87600183038151811061031257fe5b6020026020010151610590565b61033b88838151811061032e57fe5b602002602001015161064e565b1461037b576040517f08c379a0000000000000000000000000000000000000000000000000000000008152600401610372906110a9565b60405180910390fd5b5b80806001019150506101b8565b50505050505050565b60006060602060ff1667ffffffffffffffff811180156103b157600080fd5b506040519080825280601f01601f1916602001820160405280156103e45781602001600182028036833780820191505090505b50905060005b602060ff168110156104575783816020811061040257fe5b1a60f81b82600183602060ff1603038151811061041b57fe5b60200101907effffffffffffffffffffffffffffffffffffffffffffffffffffffffffffff1916908160001a90535080806001019150506103ea565b5061046181610674565b915050919050565b60006002808484604051602001610481929190610feb565b60405160208183030381529060405260405161049d9190611017565b602060405180830381855afa1580156104ba573d6000803e3d6000fd5b5050506040513d601f19601f820116820180604052508101906104dd9190610c20565b6040516020016104ed9190610fd0565b6040516020818303038152906040526040516105099190611017565b602060405180830381855afa158015610526573d6000803e3d6000fd5b5050506040513d601f19601f820116820180604052508101906105499190610c20565b905092915050565b6000806105656105608461069f565b6105d3565b90506000601882901c9050600062ffffff831690506003820360080260020a81029350505050919050565b60006105a361059e8361076b565b610392565b9050919050565b6060816040516020016105bd9190610fd0565b6040516020818303038152906040529050919050565b60008060005b835181101561061e576001810184510360080260020a8482815181106105fb57fe5b602001015160f81c60f81b60f81c60ff16028201915080806001019150506105d9565b5080915050919050565b600061064761064261063d8460246020610850565b61069f565b610674565b9050919050565b600061066d6106686106638460046020610850565b610674565b610392565b9050919050565b60006060829050600081511415610691576000801b91505061069a565b60208301519150505b919050565b606080825167ffffffffffffffff811180156106ba57600080fd5b506040519080825280601f01601f1916602001820160405280156106ed5781602001600182028036833780820191505090505b50905060005b83518110156107615783818151811061070857fe5b602001015160f81c60f81b82600183875103038151811061072557fe5b60200101907effffffffffffffffffffffffffffffffffffffffffffffffffffffffffffff1916908160001a90535080806001019150506106f3565b5080915050919050565b6000600280836040516020016107819190611017565b60405160208183030381529060405260405161079d9190611017565b602060405180830381855afa1580156107ba573d6000803e3d6000fd5b5050506040513d601f19601f820116820180604052508101906107dd9190610c20565b6040516020016107ed9190610fd0565b6040516020818303038152906040526040516108099190611017565b602060405180830381855afa158015610826573d6000803e3d6000fd5b5050506040513d601f19601f820116820180604052508101906108499190610c20565b9050919050565b606081601f83011015610898576040517f08c379a000000000000000000000000000000000000000000000000000000000815260040161088f906110c9565b60405180910390fd5b818301845110156108de576040517f08c379a00000000000000000000000000000000000000000000000000000000081526004016108d590611129565b60405180910390fd5b60608215600081146108ff5760405191506000825260208201604052610950565b6040519150601f8416801560200281840101858101878315602002848b0101015b8183101561093d5780518352602083019250602081019050610920565b50868552601f19601f8301166040525050505b50809150509392505050565b600082601f83011261096d57600080fd5b813561098061097b8261117a565b611149565b915081818352602084019350602081019050838560208402820111156109a557600080fd5b60005b838110156109d557816109bb8882610a53565b8452602084019350602083019250506001810190506109a8565b5050505092915050565b600082601f8301126109f057600080fd5b8135610a036109fe826111a6565b611149565b9150818183526020840193506020810190508360005b83811015610a495781358601610a2f8882610a7d565b845260208401935060208301925050600181019050610a19565b5050505092915050565b600081359050610a6281611297565b92915050565b600081519050610a7781611297565b92915050565b600082601f830112610a8e57600080fd5b8135610aa1610a9c826111d2565b611149565b91508082526020830160208301858383011115610abd57600080fd5b610ac8838284611249565b50505092915050565b600081359050610ae0816112ae565b92915050565b60008060008060808587031215610afc57600080fd5b600085013567ffffffffffffffff811115610b1657600080fd5b610b228782880161095c565b9450506020610b3387828801610a53565b9350506040610b4487828801610ad1565b9250506060610b5587828801610a53565b91505092959194509250565b600080600080600060a08688031215610b7957600080fd5b600086013567ffffffffffffffff811115610b9357600080fd5b610b9f888289016109df565b955050602086013567ffffffffffffffff811115610bbc57600080fd5b610bc88882890161095c565b9450506040610bd988828901610a53565b9350506060610bea88828901610ad1565b925050608086013567ffffffffffffffff811115610c0757600080fd5b610c1388828901610a7d565b9150509295509295909350565b600060208284031215610c3257600080fd5b6000610c4084828501610a68565b91505092915050565b610c5281611229565b82525050565b610c69610c6482611235565b61128b565b82525050565b6000610c7a82611202565b610c84818561120d565b9350610c94818560208601611258565b80840191505092915050565b6000610cad602c83611218565b91507f496e76616c6964206865616465722073697a652e204974206d7573742062652060008301527f6f662038302062797465732e00000000000000000000000000000000000000006020830152604082019050919050565b6000610d13602f83611218565b91507f54686520626c6f636b206865616465722068617368206973206e6f742077697460008301527f68696e20746865207461726765742e00000000000000000000000000000000006020830152604082019050919050565b6000610d79604a83611218565b91507f436f6d7075746564204d65726b6c6520726f6f7420646f6573206e6f74206d6160008301527f746368207769746820746865206f726967696e616c277320626c6f636b204d6560208301527f726b6c6520726f6f742e000000000000000000000000000000000000000000006040830152606082019050919050565b6000610e05603083611218565b91507f506172656e742068617368206973206e6f7420657175616c20746f207072657660008301527f696f757320626c6f636b20686173682e000000000000000000000000000000006020830152604082019050919050565b6000610e6b600e83611218565b91507f736c6963655f6f766572666c6f770000000000000000000000000000000000006000830152602082019050919050565b6000610eab603883611218565b91507f546f6f206d616e7920626c6f636b7320696e207468652070726f6f662e20557060008301527f20746f20313120626c6f636b7320737570706f727465642e00000000000000006020830152604082019050919050565b6000610f11604383611218565b91507f4d6178696d756d204d65726b6c652070726f6f6620656c656d656e747320726560008301527f61636865643a20757020746f20323020656c656d656e747320737570706f727460208301527f65642e00000000000000000000000000000000000000000000000000000000006040830152606082019050919050565b6000610f9d601183611218565b91507f736c6963655f6f75744f66426f756e64730000000000000000000000000000006000830152602082019050919050565b6000610fdc8284610c58565b60208201915081905092915050565b6000610ff78285610c58565b6020820191506110078284610c58565b6020820191508190509392505050565b60006110238284610c6f565b915081905092915050565b60006020820190506110436000830184610c49565b92915050565b6000602082019050818103600083015261106281610ca0565b9050919050565b6000602082019050818103600083015261108281610d06565b9050919050565b600060208201905081810360008301526110a281610d6c565b9050919050565b600060208201905081810360008301526110c281610df8565b9050919050565b600060208201905081810360008301526110e281610e5e565b9050919050565b6000602082019050818103600083015261110281610e9e565b9050919050565b6000602082019050818103600083015261112281610f04565b9050919050565b6000602082019050818103600083015261114281610f90565b9050919050565b6000604051905081810181811067ffffffffffffffff821117156111705761116f611295565b5b8060405250919050565b600067ffffffffffffffff82111561119557611194611295565b5b602082029050602081019050919050565b600067ffffffffffffffff8211156111c1576111c0611295565b5b602082029050602081019050919050565b600067ffffffffffffffff8211156111ed576111ec611295565b5b601f19601f8301169050602081019050919050565b600081519050919050565b600081905092915050565b600082825260208201905092915050565b60008115159050919050565b6000819050919050565b6000819050919050565b82818337600083830152505050565b60005b8381101561127657808201518184015260208101905061125b565b83811115611285576000848401525b50505050565b6000819050919050565bfe5b6112a081611235565b81146112ab57600080fd5b50565b6112b78161123f565b81146112c257600080fd5b5056fea2646970667358221220b4a8f3a8433d68ceb6b1c3044efaa55333804312f92a3f8bfb16efe345eb838a64736f6c63430007030033",
  "linkReferences": {},
  "deployedLinkReferences": {}
}