{
  "_format": "hh-sol-artifact-1",
  "contractName": "BytesLib",
  "sourceName": "contracts/BytesLib.sol",
  "abi": [
    {
      "inputs": [
        {
          "internalType": "string",
          "name": "_str",
          "type": "string"
        }
      ],
      "name": "flipString",
      "outputs": [
        {
          "internalType": "string",
          "name": "",
          "type": "string"
        }
      ],
      "stateMutability": "pure",
      "type": "function"
    }
  ],
  "bytecode": "0x61027c610026600b82828239805160001a60731461001957fe5b30600052607381538281f3fe73000000000000000000000000000000000000000030146080604052600436106100355760003560e01c8063a671244b1461003a575b600080fd5b6100f36004803603602081101561005057600080fd5b810190808035906020019064010000000081111561006d57600080fd5b82018360208201111561007f57600080fd5b803590602001918460018302840111640100000000831117156100a157600080fd5b91908080601f016020809104026020016040519081016040528093929190818152602001838380828437600081840152601f19601f82011690508083019250505050505050919291929050505061016e565b6040518080602001828103825283818151815260200191508051906020019080838360005b83811015610133578082015181840152602081019050610118565b50505050905090810190601f1680156101605780820380516001836020036101000a031916815260200191505b509250505060405180910390f35b6060808290506060815167ffffffffffffffff8111801561018e57600080fd5b506040519080825280601f01601f1916602001820160405280156101c15781602001600182028036833780820191505090505b509050606081905060005b835181101561023a578381815181106101e157fe5b602001015160f81c60f81b8260018387510303815181106101fe57fe5b60200101907effffffffffffffffffffffffffffffffffffffffffffffffffffffffffffff1916908160001a90535080806001019150506101cc565b5080935050505091905056fea2646970667358221220f145fa1e8a0e2d48f8a731f8a52e2d03067fb3732605017dca9cbcd8dd93866c64736f6c63430007030033",
  "linkReferences": {},
  "deployedLinkReferences": {}
}